{"abi":[{"type":"constructor","inputs":[{"name":"initialOwner","type":"address","internalType":"address"}],"stateMutability":"nonpayable"},{"type":"function","name":"approve","inputs":[{"name":"to","type":"address","internalType":"address"},{"name":"tokenId","type":"uint256","internalType":"uint256"}],"outputs":[],"stateMutability":"nonpayable"},{"type":"function","name":"balanceOf","inputs":[{"name":"owner","type":"address","internalType":"address"}],"outputs":[{"name":"","type":"uint256","internalType":"uint256"}],"stateMutability":"view"},{"type":"function","name":"getApproved","inputs":[{"name":"tokenId","type":"uint256","internalType":"uint256"}],"outputs":[{"name":"","type":"address","internalType":"address"}],"stateMutability":"view"},{"type":"function","name":"isApprovedForAll","inputs":[{"name":"owner","type":"address","internalType":"address"},{"name":"operator","type":"address","internalType":"address"}],"outputs":[{"name":"","type":"bool","internalType":"bool"}],"stateMutability":"view"},{"type":"function","name":"name","inputs":[],"outputs":[{"name":"","type":"string","internalType":"string"}],"stateMutability":"view"},{"type":"function","name":"owner","inputs":[],"outputs":[{"name":"","type":"address","internalType":"address"}],"stateMutability":"view"},{"type":"function","name":"ownerOf","inputs":[{"name":"tokenId","type":"uint256","internalType":"uint256"}],"outputs":[{"name":"","type":"address","internalType":"address"}],"stateMutability":"view"},{"type":"function","name":"renounceOwnership","inputs":[],"outputs":[],"stateMutability":"nonpayable"},{"type":"function","name":"safeMint","inputs":[{"name":"to","type":"address","internalType":"address"},{"name":"uri","type":"string","internalType":"string"}],"outputs":[],"stateMutability":"nonpayable"},{"type":"function","name":"safeTransferFrom","inputs":[{"name":"from","type":"address","internalType":"address"},{"name":"to","type":"address","internalType":"address"},{"name":"tokenId","type":"uint256","internalType":"uint256"}],"outputs":[],"stateMutability":"nonpayable"},{"type":"function","name":"safeTransferFrom","inputs":[{"name":"from","type":"address","internalType":"address"},{"name":"to","type":"address","internalType":"address"},{"name":"tokenId","type":"uint256","internalType":"uint256"},{"name":"data","type":"bytes","internalType":"bytes"}],"outputs":[],"stateMutability":"nonpayable"},{"type":"function","name":"setApprovalForAll","inputs":[{"name":"operator","type":"address","internalType":"address"},{"name":"approved","type":"bool","internalType":"bool"}],"outputs":[],"stateMutability":"nonpayable"},{"type":"function","name":"supportsInterface","inputs":[{"name":"interfaceId","type":"bytes4","internalType":"bytes4"}],"outputs":[{"name":"","type":"bool","internalType":"bool"}],"stateMutability":"view"},{"type":"function","name":"symbol","inputs":[],"outputs":[{"name":"","type":"string","internalType":"string"}],"stateMutability":"view"},{"type":"function","name":"tokenURI","inputs":[{"name":"tokenId","type":"uint256","internalType":"uint256"}],"outputs":[{"name":"","type":"string","internalType":"string"}],"stateMutability":"view"},{"type":"function","name":"transferFrom","inputs":[{"name":"from","type":"address","internalType":"address"},{"name":"to","type":"address","internalType":"address"},{"name":"tokenId","type":"uint256","internalType":"uint256"}],"outputs":[],"stateMutability":"nonpayable"},{"type":"function","name":"transferOwnership","inputs":[{"name":"newOwner","type":"address","internalType":"address"}],"outputs":[],"stateMutability":"nonpayable"},{"type":"event","name":"Approval","inputs":[{"name":"owner","type":"address","indexed":true,"internalType":"address"},{"name":"approved","type":"address","indexed":true,"internalType":"address"},{"name":"tokenId","type":"uint256","indexed":true,"internalType":"uint256"}],"anonymous":false},{"type":"event","name":"ApprovalForAll","inputs":[{"name":"owner","type":"address","indexed":true,"internalType":"address"},{"name":"operator","type":"address","indexed":true,"internalType":"address"},{"name":"approved","type":"bool","indexed":false,"internalType":"bool"}],"anonymous":false},{"type":"event","name":"BatchMetadataUpdate","inputs":[{"name":"_fromTokenId","type":"uint256","indexed":false,"internalType":"uint256"},{"name":"_toTokenId","type":"uint256","indexed":false,"internalType":"uint256"}],"anonymous":false},{"type":"event","name":"MetadataUpdate","inputs":[{"name":"_tokenId","type":"uint256","indexed":false,"internalType":"uint256"}],"anonymous":false},{"type":"event","name":"OwnershipTransferred","inputs":[{"name":"previousOwner","type":"address","indexed":true,"internalType":"address"},{"name":"newOwner","type":"address","indexed":true,"internalType":"address"}],"anonymous":false},{"type":"event","name":"Transfer","inputs":[{"name":"from","type":"address","indexed":true,"internalType":"address"},{"name":"to","type":"address","indexed":true,"internalType":"address"},{"name":"tokenId","type":"uint256","indexed":true,"internalType":"uint256"}],"anonymous":false},{"type":"error","name":"ERC721IncorrectOwner","inputs":[{"name":"sender","type":"address","internalType":"address"},{"name":"tokenId","type":"uint256","internalType":"uint256"},{"name":"owner","type":"address","internalType":"address"}]},{"type":"error","name":"ERC721InsufficientApproval","inputs":[{"name":"operator","type":"address","internalType":"address"},{"name":"tokenId","type":"uint256","internalType":"uint256"}]},{"type":"error","name":"ERC721InvalidApprover","inputs":[{"name":"approver","type":"address","internalType":"address"}]},{"type":"error","name":"ERC721InvalidOperator","inputs":[{"name":"operator","type":"address","internalType":"address"}]},{"type":"error","name":"ERC721InvalidOwner","inputs":[{"name":"owner","type":"address","internalType":"address"}]},{"type":"error","name":"ERC721InvalidReceiver","inputs":[{"name":"receiver","type":"address","internalType":"address"}]},{"type":"error","name":"ERC721InvalidSender","inputs":[{"name":"sender","type":"address","internalType":"address"}]},{"type":"error","name":"ERC721NonexistentToken","inputs":[{"name":"tokenId","type":"uint256","internalType":"uint256"}]},{"type":"error","name":"OwnableInvalidOwner","inputs":[{"name":"owner","type":"address","internalType":"address"}]},{"type":"error","name":"OwnableUnauthorizedAccount","inputs":[{"name":"account","type":"address","internalType":"address"}]}],"bytecode":{"object":"0x608060405234801561001057600080fd5b5060405161172f38038061172f83398101604081905261002f9161011a565b80604051806040016040528060068152602001654672656e7a7960d01b81525060405180604001604052806003815260200162464e5960e81b815250816000908161007a91906101e9565b50600161008782826101e9565b5050506001600160a01b0381166100b857604051631e4fbdf760e01b81526000600482015260240160405180910390fd5b6100c1816100c8565b50506102a7565b600780546001600160a01b038381166001600160a01b0319831681179093556040519116919082907f8be0079c531659141344cd1fd0a4f28419497f9722a3daafe3b4186f6b6457e090600090a35050565b60006020828403121561012c57600080fd5b81516001600160a01b038116811461014357600080fd5b9392505050565b634e487b7160e01b600052604160045260246000fd5b600181811c9082168061017457607f821691505b60208210810361019457634e487b7160e01b600052602260045260246000fd5b50919050565b601f8211156101e457806000526020600020601f840160051c810160208510156101c15750805b601f840160051c820191505b818110156101e157600081556001016101cd565b50505b505050565b81516001600160401b038111156102025761020261014a565b610216816102108454610160565b8461019a565b6020601f82116001811461024a57600083156102325750848201515b600019600385901b1c1916600184901b1784556101e1565b600084815260208120601f198516915b8281101561027a578785015182556020948501946001909201910161025a565b50848210156102985786840151600019600387901b60f8161c191681555b50505050600190811b01905550565b611479806102b66000396000f3fe608060405234801561001057600080fd5b506004361061010b5760003560e01c8063715018a6116100a2578063b88d4fde11610071578063b88d4fde1461021b578063c87b56dd1461022e578063d204c45e14610241578063e985e9c514610254578063f2fde38b1461026757600080fd5b8063715018a6146101e75780638da5cb5b146101ef57806395d89b4114610200578063a22cb4651461020857600080fd5b806323b872dd116100de57806323b872dd1461018d57806342842e0e146101a05780636352211e146101b357806370a08231146101c657600080fd5b806301ffc9a71461011057806306fdde0314610138578063081812fc1461014d578063095ea7b314610178575b600080fd5b61012361011e366004610f06565b61027a565b60405190151581526020015b60405180910390f35b61014061028b565b60405161012f9190610f73565b61016061015b366004610f86565b61031d565b6040516001600160a01b03909116815260200161012f565b61018b610186366004610fbb565b610346565b005b61018b61019b366004610fe5565b610355565b61018b6101ae366004610fe5565b6103e5565b6101606101c1366004610f86565b610405565b6101d96101d4366004611022565b610410565b60405190815260200161012f565b61018b610458565b6007546001600160a01b0316610160565b61014061046c565b61018b61021636600461103d565b61047b565b61018b610229366004611109565b610486565b61014061023c366004610f86565b61049e565b61018b61024f366004611185565b6104a9565b6101236102623660046111e7565b6104dc565b61018b610275366004611022565b61050a565b600061028582610548565b92915050565b60606000805461029a9061121a565b80601f01602080910402602001604051908101604052809291908181526020018280546102c69061121a565b80156103135780601f106102e857610100808354040283529160200191610313565b820191906000526020600020905b8154815290600101906020018083116102f657829003601f168201915b5050505050905090565b60006103288261056d565b506000828152600460205260409020546001600160a01b0316610285565b6103518282336105a6565b5050565b6001600160a01b03821661038457604051633250574960e11b8152600060048201526024015b60405180910390fd5b60006103918383336105b3565b9050836001600160a01b0316816001600160a01b0316146103df576040516364283d7b60e01b81526001600160a01b038086166004830152602482018490528216604482015260640161037b565b50505050565b61040083838360405180602001604052806000815250610486565b505050565b60006102858261056d565b60006001600160a01b03821661043c576040516322718ad960e21b81526000600482015260240161037b565b506001600160a01b031660009081526003602052604090205490565b6104606106ac565b61046a60006106d9565b565b60606001805461029a9061121a565b61035133838361072b565b610491848484610355565b6103df33858585856107ca565b6060610285826108f5565b6104b16106ac565b60088054600091826104c283611254565b9190505590506104d283826109f9565b6104008183610a13565b6001600160a01b03918216600090815260056020908152604080832093909416825291909152205460ff1690565b6105126106ac565b6001600160a01b03811661053c57604051631e4fbdf760e01b81526000600482015260240161037b565b610545816106d9565b50565b60006001600160e01b03198216632483248360e11b1480610285575061028582610a63565b6000818152600260205260408120546001600160a01b03168061028557604051637e27328960e01b81526004810184905260240161037b565b6104008383836001610ab3565b6000828152600260205260408120546001600160a01b03908116908316156105e0576105e0818486610bb9565b6001600160a01b0381161561061e576105fd600085600080610ab3565b6001600160a01b038116600090815260036020526040902080546000190190555b6001600160a01b0385161561064d576001600160a01b0385166000908152600360205260409020805460010190555b60008481526002602052604080822080546001600160a01b0319166001600160a01b0389811691821790925591518793918516917fddf252ad1be2c89b69c2b068fc378daa952ba7f163c4a11628f55a4df523b3ef91a4949350505050565b6007546001600160a01b0316331461046a5760405163118cdaa760e01b815233600482015260240161037b565b600780546001600160a01b038381166001600160a01b0319831681179093556040519116919082907f8be0079c531659141344cd1fd0a4f28419497f9722a3daafe3b4186f6b6457e090600090a35050565b6001600160a01b03821661075d57604051630b61174360e31b81526001600160a01b038316600482015260240161037b565b6001600160a01b03838116600081815260056020908152604080832094871680845294825291829020805460ff191686151590811790915591519182527f17307eab39ab6107e8899845ad3d59bd9653f200f220920489ca2b5937696c31910160405180910390a3505050565b6001600160a01b0383163b156108ee57604051630a85bd0160e11b81526001600160a01b0384169063150b7a029061080c90889088908790879060040161127b565b6020604051808303816000875af1925050508015610847575060408051601f3d908101601f19168201909252610844918101906112b8565b60015b6108b0573d808015610875576040519150601f19603f3d011682016040523d82523d6000602084013e61087a565b606091505b5080516000036108a857604051633250574960e11b81526001600160a01b038516600482015260240161037b565b805181602001fd5b6001600160e01b03198116630a85bd0160e11b146108ec57604051633250574960e11b81526001600160a01b038516600482015260240161037b565b505b5050505050565b60606109008261056d565b506000828152600660205260408120805461091a9061121a565b80601f01602080910402602001604051908101604052809291908181526020018280546109469061121a565b80156109935780601f1061096857610100808354040283529160200191610993565b820191906000526020600020905b81548152906001019060200180831161097657829003601f168201915b5050505050905060006109a4610c1d565b905080516000036109b6575092915050565b8151156109e85780826040516020016109d09291906112d5565b60405160208183030381529060405292505050919050565b6109f184610c3d565b949350505050565b610351828260405180602001604052806000815250610ca5565b6000828152600660205260409020610a2b828261134b565b506040518281527ff8e1a15aba9398e019f0b49df1a4fde98ee17ae345cb5f6b5e2c27f5033e8ce79060200160405180910390a15050565b60006001600160e01b031982166380ac58cd60e01b1480610a9457506001600160e01b03198216635b5e139f60e01b145b8061028557506301ffc9a760e01b6001600160e01b0319831614610285565b8080610ac757506001600160a01b03821615155b15610b89576000610ad78461056d565b90506001600160a01b03831615801590610b035750826001600160a01b0316816001600160a01b031614155b8015610b165750610b1481846104dc565b155b15610b3f5760405163a9fbf51f60e01b81526001600160a01b038416600482015260240161037b565b8115610b875783856001600160a01b0316826001600160a01b03167f8c5be1e5ebec7d5bd14f71427d1e84f3dd0314c0f7b2291e5b200ac8c7c3b92560405160405180910390a45b505b5050600090815260046020526040902080546001600160a01b0319166001600160a01b0392909216919091179055565b610bc4838383610cbd565b610400576001600160a01b038316610bf257604051637e27328960e01b81526004810182905260240161037b565b60405163177e802f60e01b81526001600160a01b03831660048201526024810182905260440161037b565b606060405180606001604052806039815260200161140b60399139905090565b6060610c488261056d565b506000610c53610c1d565b90506000815111610c735760405180602001604052806000815250610c9e565b80610c7d84610d20565b604051602001610c8e9291906112d5565b6040516020818303038152906040525b9392505050565b610caf8383610db3565b6104003360008585856107ca565b60006001600160a01b038316158015906109f15750826001600160a01b0316846001600160a01b03161480610cf75750610cf784846104dc565b806109f15750506000908152600460205260409020546001600160a01b03908116911614919050565b60606000610d2d83610e18565b600101905060008167ffffffffffffffff811115610d4d57610d4d611079565b6040519080825280601f01601f191660200182016040528015610d77576020820181803683370190505b5090508181016020015b600019016f181899199a1a9b1b9c1cb0b131b232b360811b600a86061a8153600a8504945084610d8157509392505050565b6001600160a01b038216610ddd57604051633250574960e11b81526000600482015260240161037b565b6000610deb838360006105b3565b90506001600160a01b03811615610400576040516339e3563760e11b81526000600482015260240161037b565b60008072184f03e93ff9f4daa797ed6e38ed64bf6a1f0160401b8310610e575772184f03e93ff9f4daa797ed6e38ed64bf6a1f0160401b830492506040015b6d04ee2d6d415b85acef81000000008310610e83576d04ee2d6d415b85acef8100000000830492506020015b662386f26fc100008310610ea157662386f26fc10000830492506010015b6305f5e1008310610eb9576305f5e100830492506008015b6127108310610ecd57612710830492506004015b60648310610edf576064830492506002015b600a83106102855760010192915050565b6001600160e01b03198116811461054557600080fd5b600060208284031215610f1857600080fd5b8135610c9e81610ef0565b60005b83811015610f3e578181015183820152602001610f26565b50506000910152565b60008151808452610f5f816020860160208601610f23565b601f01601f19169290920160200192915050565b602081526000610c9e6020830184610f47565b600060208284031215610f9857600080fd5b5035919050565b80356001600160a01b0381168114610fb657600080fd5b919050565b60008060408385031215610fce57600080fd5b610fd783610f9f565b946020939093013593505050565b600080600060608486031215610ffa57600080fd5b61100384610f9f565b925061101160208501610f9f565b929592945050506040919091013590565b60006020828403121561103457600080fd5b610c9e82610f9f565b6000806040838503121561105057600080fd5b61105983610f9f565b91506020830135801515811461106e57600080fd5b809150509250929050565b634e487b7160e01b600052604160045260246000fd5b60008067ffffffffffffffff8411156110aa576110aa611079565b50604051601f19601f85018116603f0116810181811067ffffffffffffffff821117156110d9576110d9611079565b6040528381529050808284018510156110f157600080fd5b83836020830137600060208583010152509392505050565b6000806000806080858703121561111f57600080fd5b61112885610f9f565b935061113660208601610f9f565b925060408501359150606085013567ffffffffffffffff81111561115957600080fd5b8501601f8101871361116a57600080fd5b6111798782356020840161108f565b91505092959194509250565b6000806040838503121561119857600080fd5b6111a183610f9f565b9150602083013567ffffffffffffffff8111156111bd57600080fd5b8301601f810185136111ce57600080fd5b6111dd8582356020840161108f565b9150509250929050565b600080604083850312156111fa57600080fd5b61120383610f9f565b915061121160208401610f9f565b90509250929050565b600181811c9082168061122e57607f821691505b60208210810361124e57634e487b7160e01b600052602260045260246000fd5b50919050565b60006001820161127457634e487b7160e01b600052601160045260246000fd5b5060010190565b6001600160a01b03858116825284166020820152604081018390526080606082018190526000906112ae90830184610f47565b9695505050505050565b6000602082840312156112ca57600080fd5b8151610c9e81610ef0565b600083516112e7818460208801610f23565b8351908301906112fb818360208801610f23565b01949350505050565b601f82111561040057806000526020600020601f840160051c8101602085101561132b5750805b601f840160051c820191505b818110156108ee5760008155600101611337565b815167ffffffffffffffff81111561136557611365611079565b61137981611373845461121a565b84611304565b6020601f8211600181146113ad57600083156113955750848201515b600019600385901b1c1916600184901b1784556108ee565b600084815260208120601f198516915b828110156113dd57878501518255602094850194600190920191016113bd565b50848210156113fb5786840151600019600387901b60f8161c191681555b50505050600190811b0190555056fe68747470733a2f2f626c61636b2d696d70657269616c2d627574746572666c792d3930352e6d7970696e6174612e636c6f75642f697066732fa2646970667358221220f082d98f09fd5904b3babb8617eca7c294352fc743d29eb2381b6cb3db113a5064736f6c634300081c0033","linkReferences":{}},"methodIdentifiers":{"approve(address,uint256)":"095ea7b3","balanceOf(address)":"70a08231","getApproved(uint256)":"081812fc","isApprovedForAll(address,address)":"e985e9c5","name()":"06fdde03","owner()":"8da5cb5b","ownerOf(uint256)":"6352211e","renounceOwnership()":"715018a6","safeMint(address,string)":"d204c45e","safeTransferFrom(address,address,uint256)":"42842e0e","safeTransferFrom(address,address,uint256,bytes)":"b88d4fde","setApprovalForAll(address,bool)":"a22cb465","supportsInterface(bytes4)":"01ffc9a7","symbol()":"95d89b41","tokenURI(uint256)":"c87b56dd","transferFrom(address,address,uint256)":"23b872dd","transferOwnership(address)":"f2fde38b"},"id":0}