{"abi":[{"type":"constructor","inputs":[{"name":"initialOwner","type":"address","internalType":"address"}],"stateMutability":"nonpayable"},{"type":"function","name":"addCid","inputs":[{"name":"cid","type":"string","internalType":"string"}],"outputs":[],"stateMutability":"nonpayable"},{"type":"function","name":"clearCids","inputs":[],"outputs":[],"stateMutability":"nonpayable"},{"type":"function","name":"listCids","inputs":[],"outputs":[{"name":"","type":"string[]","internalType":"string[]"}],"stateMutability":"view"},{"type":"function","name":"owner","inputs":[],"outputs":[{"name":"","type":"address","internalType":"address"}],"stateMutability":"view"},{"type":"function","name":"removeCid","inputs":[{"name":"cid","type":"string","internalType":"string"}],"outputs":[],"stateMutability":"nonpayable"},{"type":"function","name":"renounceOwnership","inputs":[],"outputs":[],"stateMutability":"nonpayable"},{"type":"function","name":"transferOwnership","inputs":[{"name":"newOwner","type":"address","internalType":"address"}],"outputs":[],"stateMutability":"nonpayable"},{"type":"event","name":"OwnershipTransferred","inputs":[{"name":"previousOwner","type":"address","indexed":true,"internalType":"address"},{"name":"newOwner","type":"address","indexed":true,"internalType":"address"}],"anonymous":false},{"type":"error","name":"OwnableInvalidOwner","inputs":[{"name":"owner","type":"address","internalType":"address"}]},{"type":"error","name":"OwnableUnauthorizedAccount","inputs":[{"name":"account","type":"address","internalType":"address"}]}],"bytecode":{"object":"0x608060405234801561001057600080fd5b50604051610a86380380610a8683398101604081905261002f916100be565b806001600160a01b03811661005e57604051631e4fbdf760e01b81526000600482015260240160405180910390fd5b6100678161006e565b50506100ee565b600080546001600160a01b038381166001600160a01b0319831681178455604051919092169283917f8be0079c531659141344cd1fd0a4f28419497f9722a3daafe3b4186f6b6457e09190a35050565b6000602082840312156100d057600080fd5b81516001600160a01b03811681146100e757600080fd5b9392505050565b610989806100fd6000396000f3fe608060405234801561001057600080fd5b506004361061007d5760003560e01c8063c318d2a31161005b578063c318d2a3146100bf578063d23888c9146100d4578063e6d234dc146100dc578063f2fde38b146100ef57600080fd5b8063715018a614610082578063790a3aa51461008c5780638da5cb5b1461009f575b600080fd5b61008a610102565b005b61008a61009a3660046104c2565b610116565b6000546040516001600160a01b0390911681526020015b60405180910390f35b6100c761015e565b6040516100b6919061059f565b61008a610237565b61008a6100ea3660046104c2565b61024b565b61008a6100fd36600461061f565b61035e565b61010a6103a1565b61011460006103ce565b565b61011e6103a1565b600280546001810182556000919091527f405787fa12a823e0f2b7631cc41b3ba8828b3321ca811111fa75cd3aa3bb5ace0161015a82826106d8565b5050565b60606002805480602002602001604051908101604052809291908181526020016000905b8282101561022e5783829060005260206000200180546101a19061064f565b80601f01602080910402602001604051908101604052809291908181526020018280546101cd9061064f565b801561021a5780601f106101ef5761010080835404028352916020019161021a565b820191906000526020600020905b8154815290600101906020018083116101fd57829003601f168201915b505050505081526020019060010190610182565b50505050905090565b61023f6103a1565b6101146002600061041e565b6102536103a1565b60005b60025481101561015a5781604051602001610271919061079a565b604051602081830303815290604052805190602001206002828154811061029a5761029a6107b6565b906000526020600020016040516020016102b491906107cc565b604051602081830303815290604052805190602001200361035657600280546102df90600190610841565b815481106102ef576102ef6107b6565b906000526020600020016002828154811061030c5761030c6107b6565b9060005260206000200190816103229190610868565b5060028054806103345761033461093d565b600190038181906000526020600020016000610350919061043c565b90555050565b600101610256565b6103666103a1565b6001600160a01b03811661039557604051631e4fbdf760e01b8152600060048201526024015b60405180910390fd5b61039e816103ce565b50565b6000546001600160a01b031633146101145760405163118cdaa760e01b815233600482015260240161038c565b600080546001600160a01b038381166001600160a01b0319831681178455604051919092169283917f8be0079c531659141344cd1fd0a4f28419497f9722a3daafe3b4186f6b6457e09190a35050565b508054600082559060005260206000209081019061039e9190610476565b5080546104489061064f565b6000825580601f10610458575050565b601f01602090049060005260206000209081019061039e9190610497565b8082111561049357600061048a828261043c565b50600101610476565b5090565b5b808211156104935760008155600101610498565b634e487b7160e01b600052604160045260246000fd5b6000602082840312156104d457600080fd5b813567ffffffffffffffff8111156104eb57600080fd5b8201601f810184136104fc57600080fd5b803567ffffffffffffffff811115610516576105166104ac565b604051601f8201601f19908116603f0116810167ffffffffffffffff81118282101715610545576105456104ac565b60405281815282820160200186101561055d57600080fd5b81602084016020830137600091810160200191909152949350505050565b60005b8381101561059657818101518382015260200161057e565b50506000910152565b6000602082016020835280845180835260408501915060408160051b86010192506020860160005b8281101561061357603f19878603018452815180518087526105f081602089016020850161057b565b601f01601f191695909501602090810195509384019391909101906001016105c7565b50929695505050505050565b60006020828403121561063157600080fd5b81356001600160a01b038116811461064857600080fd5b9392505050565b600181811c9082168061066357607f821691505b60208210810361068357634e487b7160e01b600052602260045260246000fd5b50919050565b601f8211156106d357806000526020600020601f840160051c810160208510156106b05750805b601f840160051c820191505b818110156106d057600081556001016106bc565b50505b505050565b815167ffffffffffffffff8111156106f2576106f26104ac565b61070681610700845461064f565b84610689565b6020601f82116001811461073d57600083156107225750848201515b600184901b600019600386901b1c198216175b8555506106d0565b600084815260208120601f198516915b8281101561076d578785015182556020948501946001909201910161074d565b508482101561078b5786840151600019600387901b60f8161c191681555b50505050600190811b01905550565b600082516107ac81846020870161057b565b9190910192915050565b634e487b7160e01b600052603260045260246000fd5b60008083546107da8161064f565b6001821680156107f1576001811461080657610836565b60ff1983168652811515820286019350610836565b86600052602060002060005b8381101561082e57815488820152600190910190602001610812565b505081860193505b509195945050505050565b8181038181111561086257634e487b7160e01b600052601160045260246000fd5b92915050565b818103610873575050565b61087d825461064f565b67ffffffffffffffff811115610895576108956104ac565b6108a381610700845461064f565b6000601f8211600181146108d55760008315610722575081850154600184901b600019600386901b1c19821617610735565b600085815260209020601f19841690600086815260209020845b8381101561090f57828601548255600195860195909101906020016108ef565b508583101561092d5781850154600019600388901b60f8161c191681555b5050505050600190811b01905550565b634e487b7160e01b600052603160045260246000fdfea2646970667358221220385774ec8d7d4d9815d56a8d224d207589de00aa5bfe711153b197c90851bcf464736f6c634300081c0033","linkReferences":{}},"methodIdentifiers":{"addCid(string)":"790a3aa5","clearCids()":"d23888c9","listCids()":"c318d2a3","owner()":"8da5cb5b","removeCid(string)":"e6d234dc","renounceOwnership()":"715018a6","transferOwnership(address)":"f2fde38b"},"id":0}